{
  "_format": "hh-sol-artifact-1",
  "contractName": "Bank",
  "sourceName": "contracts/Bank.sol",
  "abi": [
    {
      "inputs": [],
      "stateMutability": "nonpayable",
      "type": "constructor"
    },
    {
      "inputs": [
        {
          "internalType": "address",
          "name": "",
          "type": "address"
        },
        {
          "internalType": "uint256",
          "name": "",
          "type": "uint256"
        }
      ],
      "name": "Transactions",
      "outputs": [
        {
          "internalType": "uint256",
          "name": "transactionCount",
          "type": "uint256"
        },
        {
          "internalType": "string",
          "name": "transactionType",
          "type": "string"
        },
        {
          "internalType": "uint256",
          "name": "amount",
          "type": "uint256"
        },
        {
          "internalType": "uint256",
          "name": "time",
          "type": "uint256"
        }
      ],
      "stateMutability": "view",
      "type": "function"
    },
    {
      "inputs": [],
      "name": "balance",
      "outputs": [
        {
          "internalType": "uint256",
          "name": "",
          "type": "uint256"
        }
      ],
      "stateMutability": "view",
      "type": "function"
    },
    {
      "inputs": [],
      "name": "deposit",
      "outputs": [],
      "stateMutability": "payable",
      "type": "function"
    },
    {
      "inputs": [],
      "name": "getAllTransactions",
      "outputs": [
        {
          "components": [
            {
              "internalType": "uint256",
              "name": "transactionCount",
              "type": "uint256"
            },
            {
              "internalType": "string",
              "name": "transactionType",
              "type": "string"
            },
            {
              "internalType": "uint256",
              "name": "amount",
              "type": "uint256"
            },
            {
              "internalType": "uint256",
              "name": "time",
              "type": "uint256"
            }
          ],
          "internalType": "struct Bank.Transaction[]",
          "name": "",
          "type": "tuple[]"
        }
      ],
      "stateMutability": "view",
      "type": "function"
    },
    {
      "inputs": [],
      "name": "owner",
      "outputs": [
        {
          "internalType": "address",
          "name": "",
          "type": "address"
        }
      ],
      "stateMutability": "view",
      "type": "function"
    },
    {
      "inputs": [],
      "name": "totalBalance",
      "outputs": [
        {
          "internalType": "uint256",
          "name": "",
          "type": "uint256"
        }
      ],
      "stateMutability": "view",
      "type": "function"
    },
    {
      "inputs": [
        {
          "internalType": "address",
          "name": "receiver",
          "type": "address"
        },
        {
          "internalType": "uint256",
          "name": "amount",
          "type": "uint256"
        }
      ],
      "name": "transfer",
      "outputs": [],
      "stateMutability": "nonpayable",
      "type": "function"
    },
    {
      "inputs": [
        {
          "internalType": "uint256",
          "name": "amount",
          "type": "uint256"
        }
      ],
      "name": "withdraw",
      "outputs": [],
      "stateMutability": "nonpayable",
      "type": "function"
    }
  ],
  "bytecode": "0x60806040526000600160146101000a81548160ff02191690831515021790555034801561002b57600080fd5b5033600160006101000a81548173ffffffffffffffffffffffffffffffffffffffff021916908373ffffffffffffffffffffffffffffffffffffffff1602179055506117248061007c6000396000f3fe60806040526004361061007b5760003560e01c8063a9059cbb1161004e578063a9059cbb1461013f578063ad7a672f14610168578063b69ef8a814610193578063d0e30db0146101be5761007b565b806327506f53146100805780632e1a7d4d146100ab57806354dc23f9146100d45780638da5cb5b14610114575b600080fd5b34801561008c57600080fd5b506100956101c8565b6040516100a29190610e43565b60405180910390f35b3480156100b757600080fd5b506100d260048036038101906100cd9190610e96565b610413565b005b3480156100e057600080fd5b506100fb60048036038101906100f69190610f21565b610665565b60405161010b9493929190610fba565b60405180910390f35b34801561012057600080fd5b5061012961073a565b6040516101369190611015565b60405180910390f35b34801561014b57600080fd5b5061016660048036038101906101619190610f21565b610760565b005b34801561017457600080fd5b5061017d6108e7565b60405161018a9190611030565b60405180910390f35b34801561019f57600080fd5b506101a8610949565b6040516101b59190611030565b60405180910390f35b6101c661098f565b005b60606000600260003373ffffffffffffffffffffffffffffffffffffffff1673ffffffffffffffffffffffffffffffffffffffff1681526020019081526020016000208054905090506000600260003373ffffffffffffffffffffffffffffffffffffffff1673ffffffffffffffffffffffffffffffffffffffff168152602001908152602001600020805480602002602001604051908101604052809291908181526020016000905b828210156103545783829060005260206000209060040201604051806080016040529081600082015481526020016001820180546102af9061107a565b80601f01602080910402602001604051908101604052809291908181526020018280546102db9061107a565b80156103285780601f106102fd57610100808354040283529160200191610328565b820191906000526020600020905b81548152906001019060200180831161030b57829003601f168201915b505050505081526020016002820154815260200160038201548152505081526020019060010190610272565b50505050905060008267ffffffffffffffff811115610376576103756110ab565b5b6040519080825280602002602001820160405280156103af57816020015b61039c610c4d565b8152602001906001900390816103945790505b50905060005b83811015610409578281815181106103d0576103cf6110da565b5b60200260200101518282815181106103eb576103ea6110da565b5b6020026020010181905250808061040190611138565b9150506103b5565b5080935050505090565b600160149054906101000a900460ff1615610463576040517f08c379a000000000000000000000000000000000000000000000000000000000815260040161045a906111f2565b60405180910390fd5b60018060146101000a81548160ff0219169083151502179055506000803373ffffffffffffffffffffffffffffffffffffffff1673ffffffffffffffffffffffffffffffffffffffff168152602001908152602001600020548111156104fe576040517f08c379a00000000000000000000000000000000000000000000000000000000081526004016104f59061125e565b60405180910390fd5b60003373ffffffffffffffffffffffffffffffffffffffff1682604051610524906112af565b60006040518083038185875af1925050503d8060008114610561576040519150601f19603f3d011682016040523d82523d6000602084013e610566565b606091505b5050905080156105c657816000803373ffffffffffffffffffffffffffffffffffffffff1673ffffffffffffffffffffffffffffffffffffffff16815260200190815260200160002060008282546105be91906112c4565b925050819055505b80610606576040517f08c379a00000000000000000000000000000000000000000000000000000000081526004016105fd90611344565b60405180910390fd5b6000600160146101000a81548160ff0219169083151502179055506106616040518060400160405280600a81526020017f5769746864726177616c000000000000000000000000000000000000000000008152508342610a26565b5050565b6002602052816000526040600020818154811061068157600080fd5b9060005260206000209060040201600091509150508060000154908060010180546106ab9061107a565b80601f01602080910402602001604051908101604052809291908181526020018280546106d79061107a565b80156107245780601f106106f957610100808354040283529160200191610724565b820191906000526020600020905b81548152906001019060200180831161070757829003601f168201915b5050505050908060020154908060030154905084565b600160009054906101000a900473ffffffffffffffffffffffffffffffffffffffff1681565b806000803373ffffffffffffffffffffffffffffffffffffffff1673ffffffffffffffffffffffffffffffffffffffff1681526020019081526020016000205410156107e1576040517f08c379a00000000000000000000000000000000000000000000000000000000081526004016107d8906113b0565b60405180910390fd5b806000803373ffffffffffffffffffffffffffffffffffffffff1673ffffffffffffffffffffffffffffffffffffffff168152602001908152602001600020600082825461082f91906112c4565b9250508190555060008273ffffffffffffffffffffffffffffffffffffffff168260405161085c906112af565b60006040518083038185875af1925050503d8060008114610899576040519150601f19603f3d011682016040523d82523d6000602084013e61089e565b606091505b50509050806108e2576040517f08c379a00000000000000000000000000000000000000000000000000000000081526004016108d99061141c565b60405180910390fd5b505050565b6000600160009054906101000a900473ffffffffffffffffffffffffffffffffffffffff1673ffffffffffffffffffffffffffffffffffffffff163373ffffffffffffffffffffffffffffffffffffffff161461094357600080fd5b47905090565b60008060003373ffffffffffffffffffffffffffffffffffffffff1673ffffffffffffffffffffffffffffffffffffffff16815260200190815260200160002054905090565b346000803373ffffffffffffffffffffffffffffffffffffffff1673ffffffffffffffffffffffffffffffffffffffff16815260200190815260200160002060008282546109dd919061143c565b92505081905550610a246040518060400160405280600781526020017f4465706f736974000000000000000000000000000000000000000000000000008152503442610a26565b565b6000600260003373ffffffffffffffffffffffffffffffffffffffff1673ffffffffffffffffffffffffffffffffffffffff168152602001908152602001600020805480602002602001604051908101604052809291908181526020016000905b82821015610b69578382906000526020600020906004020160405180608001604052908160008201548152602001600182018054610ac49061107a565b80601f0160208091040260200160405190810160405280929190818152602001828054610af09061107a565b8015610b3d5780601f10610b1257610100808354040283529160200191610b3d565b820191906000526020600020905b815481529060010190602001808311610b2057829003601f168201915b505050505081526020016002820154815260200160038201548152505081526020019060010190610a87565b505050509050600060018251610b7f919061143c565b905060006040518060800160405280838152602001878152602001868152602001858152509050600260003373ffffffffffffffffffffffffffffffffffffffff1673ffffffffffffffffffffffffffffffffffffffff168152602001908152602001600020819080600181540180825580915050600190039060005260206000209060040201600090919091909150600082015181600001556020820151816001019081610c2e919061161c565b5060408201518160020155606082015181600301555050505050505050565b6040518060800160405280600081526020016060815260200160008152602001600081525090565b600081519050919050565b600082825260208201905092915050565b6000819050602082019050919050565b6000819050919050565b610cb481610ca1565b82525050565b600081519050919050565b600082825260208201905092915050565b60005b83811015610cf4578082015181840152602081019050610cd9565b60008484015250505050565b6000601f19601f8301169050919050565b6000610d1c82610cba565b610d268185610cc5565b9350610d36818560208601610cd6565b610d3f81610d00565b840191505092915050565b6000608083016000830151610d626000860182610cab565b5060208301518482036020860152610d7a8282610d11565b9150506040830151610d8f6040860182610cab565b506060830151610da26060860182610cab565b508091505092915050565b6000610db98383610d4a565b905092915050565b6000602082019050919050565b6000610dd982610c75565b610de38185610c80565b935083602082028501610df585610c91565b8060005b85811015610e315784840389528151610e128582610dad565b9450610e1d83610dc1565b925060208a01995050600181019050610df9565b50829750879550505050505092915050565b60006020820190508181036000830152610e5d8184610dce565b905092915050565b600080fd5b610e7381610ca1565b8114610e7e57600080fd5b50565b600081359050610e9081610e6a565b92915050565b600060208284031215610eac57610eab610e65565b5b6000610eba84828501610e81565b91505092915050565b600073ffffffffffffffffffffffffffffffffffffffff82169050919050565b6000610eee82610ec3565b9050919050565b610efe81610ee3565b8114610f0957600080fd5b50565b600081359050610f1b81610ef5565b92915050565b60008060408385031215610f3857610f37610e65565b5b6000610f4685828601610f0c565b9250506020610f5785828601610e81565b9150509250929050565b610f6a81610ca1565b82525050565b600082825260208201905092915050565b6000610f8c82610cba565b610f968185610f70565b9350610fa6818560208601610cd6565b610faf81610d00565b840191505092915050565b6000608082019050610fcf6000830187610f61565b8181036020830152610fe18186610f81565b9050610ff06040830185610f61565b610ffd6060830184610f61565b95945050505050565b61100f81610ee3565b82525050565b600060208201905061102a6000830184611006565b92915050565b60006020820190506110456000830184610f61565b92915050565b7f4e487b7100000000000000000000000000000000000000000000000000000000600052602260045260246000fd5b6000600282049050600182168061109257607f821691505b6020821081036110a5576110a461104b565b5b50919050565b7f4e487b7100000000000000000000000000000000000000000000000000000000600052604160045260246000fd5b7f4e487b7100000000000000000000000000000000000000000000000000000000600052603260045260246000fd5b7f4e487b7100000000000000000000000000000000000000000000000000000000600052601160045260246000fd5b600061114382610ca1565b91507fffffffffffffffffffffffffffffffffffffffffffffffffffffffffffffffff820361117557611174611109565b5b600182019050919050565b7f576169742074696c6c20796f75722070726576696f757320726571756573742060008201527f69732066756c66696c6c65640000000000000000000000000000000000000000602082015250565b60006111dc602c83610f70565b91506111e782611180565b604082019050919050565b6000602082019050818103600083015261120b816111cf565b9050919050565b7f496e73756666696369656e742066756e64732100000000000000000000000000600082015250565b6000611248601383610f70565b915061125382611212565b602082019050919050565b600060208201905081810360008301526112778161123b565b9050919050565b600081905092915050565b50565b600061129960008361127e565b91506112a482611289565b600082019050919050565b60006112ba8261128c565b9150819050919050565b60006112cf82610ca1565b91506112da83610ca1565b92508282039050818111156112f2576112f1611109565b5b92915050565b7f5472616e73666572206661696c65642e00000000000000000000000000000000600082015250565b600061132e601083610f70565b9150611339826112f8565b602082019050919050565b6000602082019050818103600083015261135d81611321565b9050919050565b7f496e73756666696369656e742046756e64730000000000000000000000000000600082015250565b600061139a601283610f70565b91506113a582611364565b602082019050919050565b600060208201905081810360008301526113c98161138d565b9050919050565b7f5472616e73666572206661696c65640000000000000000000000000000000000600082015250565b6000611406600f83610f70565b9150611411826113d0565b602082019050919050565b60006020820190508181036000830152611435816113f9565b9050919050565b600061144782610ca1565b915061145283610ca1565b925082820190508082111561146a57611469611109565b5b92915050565b60008190508160005260206000209050919050565b60006020601f8301049050919050565b600082821b905092915050565b6000600883026114d27fffffffffffffffffffffffffffffffffffffffffffffffffffffffffffffffff82611495565b6114dc8683611495565b95508019841693508086168417925050509392505050565b6000819050919050565b600061151961151461150f84610ca1565b6114f4565b610ca1565b9050919050565b6000819050919050565b611533836114fe565b61154761153f82611520565b8484546114a2565b825550505050565b600090565b61155c61154f565b61156781848461152a565b505050565b5b8181101561158b57611580600082611554565b60018101905061156d565b5050565b601f8211156115d0576115a181611470565b6115aa84611485565b810160208510156115b9578190505b6115cd6115c585611485565b83018261156c565b50505b505050565b600082821c905092915050565b60006115f3600019846008026115d5565b1980831691505092915050565b600061160c83836115e2565b9150826002028217905092915050565b61162582610cba565b67ffffffffffffffff81111561163e5761163d6110ab565b5b611648825461107a565b61165382828561158f565b600060209050601f8311600181146116865760008415611674578287015190505b61167e8582611600565b8655506116e6565b601f19841661169486611470565b60005b828110156116bc57848901518255600182019150602085019450602081019050611697565b868310156116d957848901516116d5601f8916826115e2565b8355505b6001600288020188555050505b50505050505056fea264697066735822122026c4d2c60780910f9841e66b62a1252fb50dd4c14f8bc0adef3ddedc32757b7d64736f6c63430008110033",
  "linkReferences": {},
  "deployedLinkReferences": {}
}